{
  "_format": "hh-sol-artifact-1",
  "contractName": "NftFactory",
  "sourceName": "contracts/NftFactory.sol",
  "abi": [
    {
      "inputs": [],
      "name": "CollectionExist",
      "type": "error"
    },
    {
      "anonymous": false,
      "inputs": [
        {
          "indexed": true,
          "internalType": "address",
          "name": "collectionAddress",
          "type": "address"
        },
        {
          "indexed": true,
          "internalType": "address",
          "name": "collectionOwner",
          "type": "address"
        }
      ],
      "name": "CollectionCreated",
      "type": "event"
    },
    {
      "inputs": [
        {
          "internalType": "string",
          "name": "name_",
          "type": "string"
        },
        {
          "internalType": "string",
          "name": "symbol_",
          "type": "string"
        }
      ],
      "name": "createCollection",
      "outputs": [],
      "stateMutability": "nonpayable",
      "type": "function"
    },
    {
      "inputs": [
        {
          "internalType": "address",
          "name": "",
          "type": "address"
        }
      ],
      "name": "usernameToNftCollectionAddress",
      "outputs": [
        {
          "internalType": "address",
          "name": "",
          "type": "address"
        }
      ],
      "stateMutability": "view",
      "type": "function"
    }
  ],
  "bytecode": "0x608060405234801561001057600080fd5b5061219b806100206000396000f3fe608060405234801561001057600080fd5b50600436106100365760003560e01c8063176b9b751461003b57806369eec85a14610050575b600080fd5b61004e610049366004610212565b610095565b005b61007961005e366004610276565b6000602081905290815260409020546001600160a01b031681565b6040516001600160a01b03909116815260200160405180910390f35b336000908152602081905260409020546001600160a01b0316156100cc57604051638be1e96160e01b815260040160405180910390fd5b60008282336040516100dd90610162565b6100e9939291906102ec565b604051809103906000f080158015610105573d6000803e3d6000fd5b503360008181526020819052604080822080546001600160a01b0319166001600160a01b038616908117909155905193945091927f5d0de243db1669e3a7056744cd715c625f0c1c348736c2c2d53d0ddebff1a6c79190a3505050565b611e3b8061032b83390190565b634e487b7160e01b600052604160045260246000fd5b600082601f83011261019657600080fd5b813567ffffffffffffffff808211156101b1576101b161016f565b604051601f8301601f19908116603f011681019082821181831017156101d9576101d961016f565b816040528381528660208588010111156101f257600080fd5b836020870160208301376000602085830101528094505050505092915050565b6000806040838503121561022557600080fd5b823567ffffffffffffffff8082111561023d57600080fd5b61024986838701610185565b9350602085013591508082111561025f57600080fd5b5061026c85828601610185565b9150509250929050565b60006020828403121561028857600080fd5b81356001600160a01b038116811461029f57600080fd5b9392505050565b6000815180845260005b818110156102cc576020818501810151868301820152016102b0565b506000602082860101526020601f19601f83011685010191505092915050565b6060815260006102ff60608301866102a6565b828103602084015261031181866102a6565b91505060018060a01b038316604083015294935050505056fe60806040523480156200001157600080fd5b5060405162001e3b38038062001e3b8339810160408190526200003491620001ca565b8083836000620000458382620002e6565b506001620000548282620002e6565b50506007805460ff19169055506001600160a01b0381166200009057604051631e4fbdf760e01b81526000600482015260240160405180910390fd5b6200009b81620000ab565b5050600160085550620003b29050565b600780546001600160a01b03838116610100818102610100600160a81b031985161790945560405193909204169182907f8be0079c531659141344cd1fd0a4f28419497f9722a3daafe3b4186f6b6457e090600090a35050565b634e487b7160e01b600052604160045260246000fd5b600082601f8301126200012d57600080fd5b81516001600160401b03808211156200014a576200014a62000105565b604051601f8301601f19908116603f0116810190828211818310171562000175576200017562000105565b816040528381526020925086838588010111156200019257600080fd5b600091505b83821015620001b6578582018301518183018401529082019062000197565b600093810190920192909252949350505050565b600080600060608486031215620001e057600080fd5b83516001600160401b0380821115620001f857600080fd5b62000206878388016200011b565b945060208601519150808211156200021d57600080fd5b506200022c868287016200011b565b604086015190935090506001600160a01b03811681146200024c57600080fd5b809150509250925092565b600181811c908216806200026c57607f821691505b6020821081036200028d57634e487b7160e01b600052602260045260246000fd5b50919050565b601f821115620002e157600081815260208120601f850160051c81016020861015620002bc5750805b601f850160051c820191505b81811015620002dd57828155600101620002c8565b5050505b505050565b81516001600160401b0381111562000302576200030262000105565b6200031a8162000313845462000257565b8462000293565b602080601f831160018114620003525760008415620003395750858301515b600019600386901b1c1916600185901b178555620002dd565b600085815260208120601f198616915b82811015620003835788860151825594840194600190910190840162000362565b5085821015620003a25787850151600019600388901b60f8161c191681555b5050505050600190811b01905550565b611a7980620003c26000396000f3fe608060405234801561001057600080fd5b506004361061014d5760003560e01c8063715018a6116100c3578063b7760c8f1161007c578063b7760c8f146102e5578063b88d4fde146102f8578063c87b56dd1461030b578063e985e9c51461031e578063f2fde38b14610331578063f7b188a51461034457600080fd5b8063715018a6146102835780637d4cd8471461028b5780638456cb59146102ac5780638da5cb5b146102b457806395d89b41146102ca578063a22cb465146102d257600080fd5b80632c95dcca116101155780632c95dcca146101e257806342842e0e1461022c57806353867d691461023f5780635c975abb146102525780636352211e1461025d57806370a082311461027057600080fd5b806301ffc9a71461015257806306fdde031461017a578063081812fc1461018f578063095ea7b3146101ba57806323b872dd146101cf575b600080fd5b6101656101603660046113eb565b61034c565b60405190151581526020015b60405180910390f35b610182610377565b6040516101719190611458565b6101a261019d36600461146b565b610409565b6040516001600160a01b039091168152602001610171565b6101cd6101c83660046114a0565b610432565b005b6101cd6101dd3660046114ca565b610441565b61021e6101f03660046115b2565b600b602090815260009283526040909220815180830184018051928152908401929093019190912091525481565b604051908152602001610171565b6101cd61023a3660046114ca565b6104d1565b61021e61024d366004611600565b6104f1565b60075460ff16610165565b6101a261026b36600461146b565b6105c5565b61021e61027e366004611674565b6105d0565b6101cd610618565b61029e61029936600461146b565b61062c565b60405161017192919061168f565b6101cd6106d1565b60075461010090046001600160a01b03166101a2565b6101826106e9565b6101cd6102e03660046116a8565b6106f8565b6101cd6102f33660046116e4565b610703565b6101cd610306366004611710565b610830565b61018261031936600461146b565b610847565b61016561032c36600461178c565b610958565b6101cd61033f366004611674565b610986565b6101cd6109c4565b60006001600160e01b03198216632483248360e11b14806103715750610371826109dc565b92915050565b606060008054610386906117b6565b80601f01602080910402602001604051908101604052809291908181526020018280546103b2906117b6565b80156103ff5780601f106103d4576101008083540402835291602001916103ff565b820191906000526020600020905b8154815290600101906020018083116103e257829003601f168201915b5050505050905090565b600061041482610a2c565b506000828152600460205260409020546001600160a01b0316610371565b61043d828233610a65565b5050565b6001600160a01b03821661047057604051633250574960e11b8152600060048201526024015b60405180910390fd5b600061047d838333610a72565b9050836001600160a01b0316816001600160a01b0316146104cb576040516364283d7b60e01b81526001600160a01b0380861660048301526024820184905282166044820152606401610467565b50505050565b6104ec83838360405180602001604052806000815250610830565b505050565b60006104fb610b6b565b610503610b95565b6001600160a01b03841661054b5760405162461bcd60e51b815260206004820152600f60248201526e496e76616c6964204164647265737360881b6044820152606401610467565b600980546000918261055c83611806565b9091555060408051808201825282815260208082018881526000858152600a90925292902081518155915192935091600182019061059a908261186d565b509050506105a88582610bb9565b6105b28184610c1e565b90506105be6001600855565b9392505050565b600061037182610a2c565b60006001600160a01b0382166105fc576040516322718ad960e21b815260006004820152602401610467565b506001600160a01b031660009081526003602052604090205490565b610620610c6e565b61062a6000610ca1565b565b600a602052600090815260409020805460018201805491929161064e906117b6565b80601f016020809104026020016040519081016040528092919081815260200182805461067a906117b6565b80156106c75780601f1061069c576101008083540402835291602001916106c7565b820191906000526020600020905b8154815290600101906020018083116106aa57829003601f168201915b5050505050905082565b6106d9610c6e565b6106e1610b95565b61062a610cfb565b606060018054610386906117b6565b61043d338383610d55565b61070b610b6b565b610713610b95565b61071c826105c5565b6001600160a01b0316336001600160a01b03161461076c5760405162461bcd60e51b815260206004820152600d60248201526c24b73b30b634b21037bbb732b960991b6044820152606401610467565b610777338284610df4565b336000908152600b60209081526040808320858452600a90925291829020915190916107a89160019091019061192d565b90815260405190819003602001902080549060006107c5836119a3565b90915550506001600160a01b0381166000908152600b60209081526040808320858452600a90925291829020915190916108049160019091019061192d565b908152604051908190036020019020805490600061082183611806565b919050555061043d6001600855565b61083b848484610441565b6104cb84848484610ea4565b606061085282610a2c565b506000828152600660205260408120805461086c906117b6565b80601f0160208091040260200160405190810160405280929190818152602001828054610898906117b6565b80156108e55780601f106108ba576101008083540402835291602001916108e5565b820191906000526020600020905b8154815290600101906020018083116108c857829003601f168201915b50505050509050600061090360408051602081019091526000815290565b90508051600003610915575092915050565b81511561094757808260405160200161092f9291906119ba565b60405160208183030381529060405292505050919050565b61095084610fcd565b949350505050565b6001600160a01b03918216600090815260056020908152604080832093909416825291909152205460ff1690565b61098e610c6e565b6001600160a01b0381166109b857604051631e4fbdf760e01b815260006004820152602401610467565b6109c181610ca1565b50565b6109cc610c6e565b6109d4611041565b61062a611064565b60006001600160e01b031982166380ac58cd60e01b1480610a0d57506001600160e01b03198216635b5e139f60e01b145b8061037157506301ffc9a760e01b6001600160e01b0319831614610371565b6000818152600260205260408120546001600160a01b03168061037157604051637e27328960e01b815260048101849052602401610467565b6104ec838383600161109d565b6000828152600260205260408120546001600160a01b0390811690831615610a9f57610a9f8184866111a3565b6001600160a01b03811615610add57610abc60008560008061109d565b6001600160a01b038116600090815260036020526040902080546000190190555b6001600160a01b03851615610b0c576001600160a01b0385166000908152600360205260409020805460010190555b60008481526002602052604080822080546001600160a01b0319166001600160a01b0389811691821790925591518793918516917fddf252ad1be2c89b69c2b068fc378daa952ba7f163c4a11628f55a4df523b3ef91a4949350505050565b600260085403610b8e57604051633ee5aeb560e01b815260040160405180910390fd5b6002600855565b60075460ff161561062a5760405163d93c066560e01b815260040160405180910390fd5b6001600160a01b038216610be357604051633250574960e11b815260006004820152602401610467565b6000610bf183836000610a72565b90506001600160a01b038116156104ec576040516339e3563760e11b815260006004820152602401610467565b6000828152600660205260409020610c36828261186d565b506040518281527ff8e1a15aba9398e019f0b49df1a4fde98ee17ae345cb5f6b5e2c27f5033e8ce79060200160405180910390a15050565b6007546001600160a01b0361010090910416331461062a5760405163118cdaa760e01b8152336004820152602401610467565b600780546001600160a01b03838116610100818102610100600160a81b031985161790945560405193909204169182907f8be0079c531659141344cd1fd0a4f28419497f9722a3daafe3b4186f6b6457e090600090a35050565b610d03610b95565b6007805460ff191660011790557f62e78cea01bee320cd4e420270b5ea74000d11b0c9f74754ebdbfc544b05a258610d383390565b6040516001600160a01b03909116815260200160405180910390a1565b6001600160a01b038216610d8757604051630b61174360e31b81526001600160a01b0383166004820152602401610467565b6001600160a01b03838116600081815260056020908152604080832094871680845294825291829020805460ff191686151590811790915591519182527f17307eab39ab6107e8899845ad3d59bd9653f200f220920489ca2b5937696c31910160405180910390a3505050565b6001600160a01b038216610e1e57604051633250574960e11b815260006004820152602401610467565b6000610e2c83836000610a72565b90506001600160a01b038116610e5857604051637e27328960e01b815260048101839052602401610467565b836001600160a01b0316816001600160a01b0316146104cb576040516364283d7b60e01b81526001600160a01b0380861660048301526024820184905282166044820152606401610467565b6001600160a01b0383163b156104cb57604051630a85bd0160e11b81526001600160a01b0384169063150b7a0290610ee69033908890879087906004016119e9565b6020604051808303816000875af1925050508015610f21575060408051601f3d908101601f19168201909252610f1e91810190611a26565b60015b610f8a573d808015610f4f576040519150601f19603f3d011682016040523d82523d6000602084013e610f54565b606091505b508051600003610f8257604051633250574960e11b81526001600160a01b0385166004820152602401610467565b805181602001fd5b6001600160e01b03198116630a85bd0160e11b14610fc657604051633250574960e11b81526001600160a01b0385166004820152602401610467565b5050505050565b6060610fd882610a2c565b506000610ff060408051602081019091526000815290565b9050600081511161101057604051806020016040528060008152506105be565b8061101a84611207565b60405160200161102b9291906119ba565b6040516020818303038152906040529392505050565b60075460ff1661062a57604051638dfc202b60e01b815260040160405180910390fd5b61106c611041565b6007805460ff191690557f5db9ee0a495bf2e6ff9c91a7834c1ba4fdd244a5e8aa4e537bd38aeae4b073aa33610d38565b80806110b157506001600160a01b03821615155b156111735760006110c184610a2c565b90506001600160a01b038316158015906110ed5750826001600160a01b0316816001600160a01b031614155b801561110057506110fe8184610958565b155b156111295760405163a9fbf51f60e01b81526001600160a01b0384166004820152602401610467565b81156111715783856001600160a01b0316826001600160a01b03167f8c5be1e5ebec7d5bd14f71427d1e84f3dd0314c0f7b2291e5b200ac8c7c3b92560405160405180910390a45b505b5050600090815260046020526040902080546001600160a01b0319166001600160a01b0392909216919091179055565b6111ae83838361129a565b6104ec576001600160a01b0383166111dc57604051637e27328960e01b815260048101829052602401610467565b60405163177e802f60e01b81526001600160a01b038316600482015260248101829052604401610467565b60606000611214836112fd565b600101905060008167ffffffffffffffff81111561123457611234611506565b6040519080825280601f01601f19166020018201604052801561125e576020820181803683370190505b5090508181016020015b600019016f181899199a1a9b1b9c1cb0b131b232b360811b600a86061a8153600a850494508461126857509392505050565b60006001600160a01b038316158015906109505750826001600160a01b0316846001600160a01b031614806112d457506112d48484610958565b806109505750506000908152600460205260409020546001600160a01b03908116911614919050565b60008072184f03e93ff9f4daa797ed6e38ed64bf6a1f0160401b831061133c5772184f03e93ff9f4daa797ed6e38ed64bf6a1f0160401b830492506040015b6d04ee2d6d415b85acef81000000008310611368576d04ee2d6d415b85acef8100000000830492506020015b662386f26fc10000831061138657662386f26fc10000830492506010015b6305f5e100831061139e576305f5e100830492506008015b61271083106113b257612710830492506004015b606483106113c4576064830492506002015b600a83106103715760010192915050565b6001600160e01b0319811681146109c157600080fd5b6000602082840312156113fd57600080fd5b81356105be816113d5565b60005b8381101561142357818101518382015260200161140b565b50506000910152565b60008151808452611444816020860160208601611408565b601f01601f19169290920160200192915050565b6020815260006105be602083018461142c565b60006020828403121561147d57600080fd5b5035919050565b80356001600160a01b038116811461149b57600080fd5b919050565b600080604083850312156114b357600080fd5b6114bc83611484565b946020939093013593505050565b6000806000606084860312156114df57600080fd5b6114e884611484565b92506114f660208501611484565b9150604084013590509250925092565b634e487b7160e01b600052604160045260246000fd5b600067ffffffffffffffff8084111561153757611537611506565b604051601f8501601f19908116603f0116810190828211818310171561155f5761155f611506565b8160405280935085815286868601111561157857600080fd5b858560208301376000602087830101525050509392505050565b600082601f8301126115a357600080fd5b6105be8383356020850161151c565b600080604083850312156115c557600080fd5b6115ce83611484565b9150602083013567ffffffffffffffff8111156115ea57600080fd5b6115f685828601611592565b9150509250929050565b60008060006060848603121561161557600080fd5b61161e84611484565b9250602084013567ffffffffffffffff8082111561163b57600080fd5b61164787838801611592565b9350604086013591508082111561165d57600080fd5b5061166a86828701611592565b9150509250925092565b60006020828403121561168657600080fd5b6105be82611484565b828152604060208201526000610950604083018461142c565b600080604083850312156116bb57600080fd5b6116c483611484565b9150602083013580151581146116d957600080fd5b809150509250929050565b600080604083850312156116f757600080fd5b8235915061170760208401611484565b90509250929050565b6000806000806080858703121561172657600080fd5b61172f85611484565b935061173d60208601611484565b925060408501359150606085013567ffffffffffffffff81111561176057600080fd5b8501601f8101871361177157600080fd5b6117808782356020840161151c565b91505092959194509250565b6000806040838503121561179f57600080fd5b6117a883611484565b915061170760208401611484565b600181811c908216806117ca57607f821691505b6020821081036117ea57634e487b7160e01b600052602260045260246000fd5b50919050565b634e487b7160e01b600052601160045260246000fd5b600060018201611818576118186117f0565b5060010190565b601f8211156104ec57600081815260208120601f850160051c810160208610156118465750805b601f850160051c820191505b8181101561186557828155600101611852565b505050505050565b815167ffffffffffffffff81111561188757611887611506565b61189b8161189584546117b6565b8461181f565b602080601f8311600181146118d057600084156118b85750858301515b600019600386901b1c1916600185901b178555611865565b600085815260208120601f198616915b828110156118ff578886015182559484019460019091019084016118e0565b508582101561191d5787850151600019600388901b60f8161c191681555b5050505050600190811b01905550565b600080835461193b816117b6565b60018281168015611953576001811461196857611997565b60ff1984168752821515830287019450611997565b8760005260208060002060005b8581101561198e5781548a820152908401908201611975565b50505082870194505b50929695505050505050565b6000816119b2576119b26117f0565b506000190190565b600083516119cc818460208801611408565b8351908301906119e0818360208801611408565b01949350505050565b6001600160a01b0385811682528416602082015260408101839052608060608201819052600090611a1c9083018461142c565b9695505050505050565b600060208284031215611a3857600080fd5b81516105be816113d556fea2646970667358221220c715882000e9dedd2736611653ca9c62cba6671abbaf4530c123ab0a2218f15c64736f6c63430008140033a2646970667358221220740a35b957e52ae162aaae88728586bbe1beef94ad082130cfdf59b96d599e6464736f6c63430008140033",
  "linkReferences": {},
  "deployedLinkReferences": {}
}